{"abi":[{"type":"function","name":"ADMIN","inputs":[],"outputs":[{"name":"","type":"address","internalType":"address"}],"stateMutability":"view"},{"type":"function","name":"AGISolverAddress","inputs":[],"outputs":[{"name":"","type":"address","internalType":"address"}],"stateMutability":"view"},{"type":"function","name":"AgentGeneratedIntentList","inputs":[{"name":"","type":"uint256","internalType":"uint256"}],"outputs":[{"name":"intentType","type":"uint8","internalType":"uint8"},{"name":"assetToSell","type":"address","internalType":"address"},{"name":"amountToSell","type":"uint256","internalType":"uint256"},{"name":"assetToBuy","type":"address","internalType":"address"},{"name":"orderIndex","type":"uint256","internalType":"uint256"},{"name":"orderStatus","type":"uint8","internalType":"uint8"}],"stateMutability":"view"},{"type":"function","name":"depositAsset","inputs":[{"name":"amount","type":"uint256","internalType":"uint256"},{"name":"orderIndex","type":"uint256","internalType":"uint256"}],"outputs":[],"stateMutability":"nonpayable"},{"type":"function","name":"depositSVF","inputs":[{"name":"amount","type":"uint256","internalType":"uint256"},{"name":"orderIndex","type":"uint256","internalType":"uint256"}],"outputs":[],"stateMutability":"nonpayable"},{"type":"function","name":"publishAGI","inputs":[{"name":"intentType","type":"uint8","internalType":"uint8"},{"name":"assetToSell","type":"address","internalType":"address"},{"name":"amountToSell","type":"uint256","internalType":"uint256"},{"name":"assetToBuy","type":"address","internalType":"address"}],"outputs":[],"stateMutability":"nonpayable"},{"type":"function","name":"updateAGISolverAddress","inputs":[{"name":"newSolver","type":"address","internalType":"address"}],"outputs":[],"stateMutability":"nonpayable"},{"type":"function","name":"viewAGI","inputs":[{"name":"orderIndex","type":"uint256","internalType":"uint256"}],"outputs":[{"name":"","type":"tuple","internalType":"struct Mock13.AgentGeneratedIntent","components":[{"name":"intentType","type":"uint8","internalType":"uint8"},{"name":"assetToSell","type":"address","internalType":"address"},{"name":"amountToSell","type":"uint256","internalType":"uint256"},{"name":"assetToBuy","type":"address","internalType":"address"},{"name":"orderIndex","type":"uint256","internalType":"uint256"},{"name":"orderStatus","type":"uint8","internalType":"uint8"}]}],"stateMutability":"view"},{"type":"function","name":"withdrawAsset","inputs":[{"name":"amount","type":"uint256","internalType":"uint256"},{"name":"orderIndex","type":"uint256","internalType":"uint256"}],"outputs":[],"stateMutability":"nonpayable"},{"type":"function","name":"withdrawSVF","inputs":[{"name":"amount","type":"uint256","internalType":"uint256"},{"name":"orderIndex","type":"uint256","internalType":"uint256"}],"outputs":[],"stateMutability":"nonpayable"},{"type":"event","name":"AGIPublished","inputs":[{"name":"orderIndex","type":"uint256","indexed":false,"internalType":"uint256"}],"anonymous":false}],"bytecode":{"object":"0x6080604052736c00cbc79fed15c26716bde40d29f4058be63fda5f806101000a81548173ffffffffffffffffffffffffffffffffffffffff021916908373ffffffffffffffffffffffffffffffffffffffff1602179055503480156061575f80fd5b506118838061006f5f395ff3fe608060405234801561000f575f80fd5b506004361061009c575f3560e01c8063a888f77611610064578063a888f7761461015d578063c7018be714610179578063d725080514610195578063e0b68f8a146101b1578063fcc8cd7c146101cd5761009c565b806325c8fc93146100a05780632a0acc6a146100be57806380a8e127146100dc578063877c2af01461010c578063a4ed1c1c14610141575b5f80fd5b6100a86101e9565b6040516100b5919061109b565b60405180910390f35b6100c661020c565b6040516100d3919061109b565b60405180910390f35b6100f660048036038101906100f191906110eb565b610224565b60405161010391906111c8565b60405180910390f35b610126600480360381019061012191906110eb565b61039a565b604051610138969594939291906111ff565b60405180910390f35b61015b6004803603810190610156919061125e565b610437565b005b6101776004803603810190610172919061125e565b6105d2565b005b610193600480360381019061018e91906112c6565b61077d565b005b6101af60048036038101906101aa919061125e565b6108af565b005b6101cb60048036038101906101c6919061131b565b610a5a565b005b6101e760048036038101906101e2919061125e565b610cd4565b005b5f8054906101000a900473ffffffffffffffffffffffffffffffffffffffff1681565b736c00cbc79fed15c26716bde40d29f4058be63fda81565b61022c610ffa565b6001805490508210610273576040517f08c379a000000000000000000000000000000000000000000000000000000000815260040161026a906113d9565b60405180910390fd5b60018281548110610287576102866113f7565b5b905f5260205f2090600502016040518060c00160405290815f82015f9054906101000a900460ff1660ff1660ff1681526020015f820160019054906101000a900473ffffffffffffffffffffffffffffffffffffffff1673ffffffffffffffffffffffffffffffffffffffff1673ffffffffffffffffffffffffffffffffffffffff16815260200160018201548152602001600282015f9054906101000a900473ffffffffffffffffffffffffffffffffffffffff1673ffffffffffffffffffffffffffffffffffffffff1673ffffffffffffffffffffffffffffffffffffffff16815260200160038201548152602001600482015f9054906101000a900460ff1660ff1660ff16815250509050919050565b600181815481106103a9575f80fd5b905f5260205f2090600502015f91509050805f015f9054906101000a900460ff1690805f0160019054906101000a900473ffffffffffffffffffffffffffffffffffffffff1690806001015490806002015f9054906101000a900473ffffffffffffffffffffffffffffffffffffffff1690806003015490806004015f9054906101000a900460ff16905086565b5f8054906101000a900473ffffffffffffffffffffffffffffffffffffffff1673ffffffffffffffffffffffffffffffffffffffff163373ffffffffffffffffffffffffffffffffffffffff16146104c4576040517f08c379a00000000000000000000000000000000000000000000000000000000081526004016104bb9061146e565b60405180910390fd5b5f600182815481106104d9576104d86113f7565b5b905f5260205f20906005020190505f816004015f9054906101000a900460ff1660ff161461053c576040517f08c379a0000000000000000000000000000000000000000000000000000000008152600401610533906114d6565b60405180910390fd5b82816001015414610582576040517f08c379a00000000000000000000000000000000000000000000000000000000081526004016105799061153e565b60405180910390fd5b6001816004015f6101000a81548160ff021916908360ff1602179055506105cd815f0160019054906101000a900473ffffffffffffffffffffffffffffffffffffffff163385610e6f565b505050565b5f8054906101000a900473ffffffffffffffffffffffffffffffffffffffff1673ffffffffffffffffffffffffffffffffffffffff163373ffffffffffffffffffffffffffffffffffffffff161461065f576040517f08c379a00000000000000000000000000000000000000000000000000000000081526004016106569061146e565b60405180910390fd5b5f60018281548110610674576106736113f7565b5b905f5260205f20906005020190506001816004015f9054906101000a900460ff1660ff16146106d8576040517f08c379a00000000000000000000000000000000000000000000000000000000081526004016106cf906114d6565b60405180910390fd5b5f815f015f9054906101000a900460ff1660ff161461072c576040517f08c379a0000000000000000000000000000000000000000000000000000000008152600401610723906115a6565b60405180910390fd5b6002816004015f6101000a81548160ff021916908360ff160217905550610778816002015f9054906101000a900473ffffffffffffffffffffffffffffffffffffffff16333086610f26565b505050565b736c00cbc79fed15c26716bde40d29f4058be63fda73ffffffffffffffffffffffffffffffffffffffff163373ffffffffffffffffffffffffffffffffffffffff16146107ff576040517f08c379a00000000000000000000000000000000000000000000000000000000081526004016107f69061160e565b60405180910390fd5b5f73ffffffffffffffffffffffffffffffffffffffff168173ffffffffffffffffffffffffffffffffffffffff160361086d576040517f08c379a000000000000000000000000000000000000000000000000000000000815260040161086490611676565b60405180910390fd5b805f806101000a81548173ffffffffffffffffffffffffffffffffffffffff021916908373ffffffffffffffffffffffffffffffffffffffff16021790555050565b5f8054906101000a900473ffffffffffffffffffffffffffffffffffffffff1673ffffffffffffffffffffffffffffffffffffffff163373ffffffffffffffffffffffffffffffffffffffff161461093c576040517f08c379a00000000000000000000000000000000000000000000000000000000081526004016109339061146e565b60405180910390fd5b5f60018281548110610951576109506113f7565b5b905f5260205f20906005020190506001816004015f9054906101000a900460ff1660ff16146109b5576040517f08c379a00000000000000000000000000000000000000000000000000000000081526004016109ac906114d6565b60405180910390fd5b5f815f015f9054906101000a900460ff1660ff1614610a09576040517f08c379a0000000000000000000000000000000000000000000000000000000008152600401610a00906115a6565b60405180910390fd5b6002816004015f6101000a81548160ff021916908360ff160217905550610a55816002015f9054906101000a900473ffffffffffffffffffffffffffffffffffffffff16333086610f26565b505050565b736c00cbc79fed15c26716bde40d29f4058be63fda73ffffffffffffffffffffffffffffffffffffffff163373ffffffffffffffffffffffffffffffffffffffff1614610adc576040517f08c379a0000000000000000000000000000000000000000000000000000000008152600401610ad3906116de565b60405180910390fd5b5f8460ff1614610b21576040517f08c379a0000000000000000000000000000000000000000000000000000000008152600401610b1890611746565b60405180910390fd5b5f60018054905090505f6040518060c001604052808760ff1681526020018673ffffffffffffffffffffffffffffffffffffffff1681526020018581526020018473ffffffffffffffffffffffffffffffffffffffff1681526020018381526020015f60ff168152509050600181908060018154018082558091505060019003905f5260205f2090600502015f909190919091505f820151815f015f6101000a81548160ff021916908360ff1602179055506020820151815f0160016101000a81548173ffffffffffffffffffffffffffffffffffffffff021916908373ffffffffffffffffffffffffffffffffffffffff160217905550604082015181600101556060820151816002015f6101000a81548173ffffffffffffffffffffffffffffffffffffffff021916908373ffffffffffffffffffffffffffffffffffffffff1602179055506080820151816003015560a0820151816004015f6101000a81548160ff021916908360ff16021790555050507f97a0ff6378f3341877ea40d9b90b4ab4a7d60cbd30edec11e6760ed3b6c24b7782604051610cc49190611764565b60405180910390a1505050505050565b5f8054906101000a900473ffffffffffffffffffffffffffffffffffffffff1673ffffffffffffffffffffffffffffffffffffffff163373ffffffffffffffffffffffffffffffffffffffff1614610d61576040517f08c379a0000000000000000000000000000000000000000000000000000000008152600401610d589061146e565b60405180910390fd5b5f60018281548110610d7657610d756113f7565b5b905f5260205f20906005020190505f816004015f9054906101000a900460ff1660ff1614610dd9576040517f08c379a0000000000000000000000000000000000000000000000000000000008152600401610dd0906114d6565b60405180910390fd5b82816001015414610e1f576040517f08c379a0000000000000000000000000000000000000000000000000000000008152600401610e169061153e565b60405180910390fd5b6001816004015f6101000a81548160ff021916908360ff160217905550610e6a815f0160019054906101000a900473ffffffffffffffffffffffffffffffffffffffff163385610e6f565b505050565b5f6040517fa9059cbb00000000000000000000000000000000000000000000000000000000815273ffffffffffffffffffffffffffffffffffffffff8416600482015282602482015260205f6044835f895af1915081601f3d1160015f511416151615610edf573d853b15171591505b5080610f20576040517f08c379a0000000000000000000000000000000000000000000000000000000008152600401610f17906117c7565b60405180910390fd5b50505050565b5f6040517f23b872dd00000000000000000000000000000000000000000000000000000000815273ffffffffffffffffffffffffffffffffffffffff8516600482015273ffffffffffffffffffffffffffffffffffffffff8416602482015282604482015260205f6064835f8a5af1915081601f3d1160015f511416151615610fb2573d863b15171591505b5080610ff3576040517f08c379a0000000000000000000000000000000000000000000000000000000008152600401610fea9061182f565b60405180910390fd5b5050505050565b6040518060c001604052805f60ff1681526020015f73ffffffffffffffffffffffffffffffffffffffff1681526020015f81526020015f73ffffffffffffffffffffffffffffffffffffffff1681526020015f81526020015f60ff1681525090565b5f73ffffffffffffffffffffffffffffffffffffffff82169050919050565b5f6110858261105c565b9050919050565b6110958161107b565b82525050565b5f6020820190506110ae5f83018461108c565b92915050565b5f80fd5b5f819050919050565b6110ca816110b8565b81146110d4575f80fd5b50565b5f813590506110e5816110c1565b92915050565b5f60208284031215611100576110ff6110b4565b5b5f61110d848285016110d7565b91505092915050565b5f60ff82169050919050565b61112b81611116565b82525050565b61113a8161107b565b82525050565b611149816110b8565b82525050565b60c082015f8201516111635f850182611122565b5060208201516111766020850182611131565b5060408201516111896040850182611140565b50606082015161119c6060850182611131565b5060808201516111af6080850182611140565b5060a08201516111c260a0850182611122565b50505050565b5f60c0820190506111db5f83018461114f565b92915050565b6111ea81611116565b82525050565b6111f9816110b8565b82525050565b5f60c0820190506112125f8301896111e1565b61121f602083018861108c565b61122c60408301876111f0565b611239606083018661108c565b61124660808301856111f0565b61125360a08301846111e1565b979650505050505050565b5f8060408385031215611274576112736110b4565b5b5f611281858286016110d7565b9250506020611292858286016110d7565b9150509250929050565b6112a58161107b565b81146112af575f80fd5b50565b5f813590506112c08161129c565b92915050565b5f602082840312156112db576112da6110b4565b5b5f6112e8848285016112b2565b91505092915050565b6112fa81611116565b8114611304575f80fd5b50565b5f81359050611315816112f1565b92915050565b5f805f8060808587031215611333576113326110b4565b5b5f61134087828801611307565b9450506020611351878288016112b2565b9350506040611362878288016110d7565b9250506060611373878288016112b2565b91505092959194509250565b5f82825260208201905092915050565b7f496e76616c6964206f7264657220696e646578000000000000000000000000005f82015250565b5f6113c360138361137f565b91506113ce8261138f565b602082019050919050565b5f6020820190508181035f8301526113f0816113b7565b9050919050565b7f4e487b71000000000000000000000000000000000000000000000000000000005f52603260045260245ffd5b7f4f6e6c7920736f6c7665722063616e2063616c6c0000000000000000000000005f82015250565b5f61145860148361137f565b915061146382611424565b602082019050919050565b5f6020820190508181035f8301526114858161144c565b9050919050565b7f496e76616c6964206f72646572207374617475730000000000000000000000005f82015250565b5f6114c060148361137f565b91506114cb8261148c565b602082019050919050565b5f6020820190508181035f8301526114ed816114b4565b9050919050565b7f416d6f756e74206d69736d6174636800000000000000000000000000000000005f82015250565b5f611528600f8361137f565b9150611533826114f4565b602082019050919050565b5f6020820190508181035f8301526115558161151c565b9050919050565b7f496e76616c696420696e74656e742074797065000000000000000000000000005f82015250565b5f61159060138361137f565b915061159b8261155c565b602082019050919050565b5f6020820190508181035f8301526115bd81611584565b9050919050565b7f4f6e6c792061646d696e2063616e2063616c6c000000000000000000000000005f82015250565b5f6115f860138361137f565b9150611603826115c4565b602082019050919050565b5f6020820190508181035f830152611625816115ec565b9050919050565b7f496e76616c6964206164647265737300000000000000000000000000000000005f82015250565b5f611660600f8361137f565b915061166b8261162c565b602082019050919050565b5f6020820190508181035f83015261168d81611654565b9050919050565b7f4f6e6c792041492063616e2063616c6c000000000000000000000000000000005f82015250565b5f6116c860108361137f565b91506116d382611694565b602082019050919050565b5f6020820190508181035f8301526116f5816116bc565b9050919050565b7f4f6e6c7920747261646520696e74656e747320737570706f72746564000000005f82015250565b5f611730601c8361137f565b915061173b826116fc565b602082019050919050565b5f6020820190508181035f83015261175d81611724565b9050919050565b5f6020820190506117775f8301846111f0565b92915050565b7f5452414e534645525f4641494c454400000000000000000000000000000000005f82015250565b5f6117b1600f8361137f565b91506117bc8261177d565b602082019050919050565b5f6020820190508181035f8301526117de816117a5565b9050919050565b7f5452414e534645525f46524f4d5f4641494c45440000000000000000000000005f82015250565b5f61181960148361137f565b9150611824826117e5565b602082019050919050565b5f6020820190508181035f8301526118468161180d565b905091905056fea26469706673582212204236d9b861eef7b07c5bea0e8bed58ccee587bf366679227598df3a7d768f2d064736f6c634300081a0033","linkReferences":{}},"methodIdentifiers":{"ADMIN()":"2a0acc6a","AGISolverAddress()":"25c8fc93","AgentGeneratedIntentList(uint256)":"877c2af0","depositAsset(uint256,uint256)":"a888f776","depositSVF(uint256,uint256)":"d7250805","publishAGI(uint8,address,uint256,address)":"e0b68f8a","updateAGISolverAddress(address)":"c7018be7","viewAGI(uint256)":"80a8e127","withdrawAsset(uint256,uint256)":"fcc8cd7c","withdrawSVF(uint256,uint256)":"a4ed1c1c"},"id":17}