{
	"abi": [
		{
			"type": "constructor",
			"inputs": [],
			"stateMutability": "nonpayable"
		},
		{
			"type": "function",
			"name": "UPGRADE_INTERFACE_VERSION",
			"inputs": [],
			"outputs": [
				{
					"name": "",
					"type": "string",
					"internalType": "string"
				}
			],
			"stateMutability": "view"
		},
		{
			"type": "function",
			"name": "acceptOwnership",
			"inputs": [],
			"outputs": [],
			"stateMutability": "nonpayable"
		},
		{
			"type": "function",
			"name": "agiSolverAddress",
			"inputs": [],
			"outputs": [
				{
					"name": "",
					"type": "address",
					"internalType": "address"
				}
			],
			"stateMutability": "view"
		},
		{
			"type": "function",
			"name": "agis",
			"inputs": [
				{
					"name": "orderId",
					"type": "uint256",
					"internalType": "uint256"
				}
			],
			"outputs": [
				{
					"name": "orderType",
					"type": "uint8",
					"internalType": "uint8"
				},
				{
					"name": "orderId",
					"type": "uint256",
					"internalType": "uint256"
				},
				{
					"name": "assetToSell",
					"type": "address",
					"internalType": "address"
				},
				{
					"name": "amountToSell",
					"type": "uint256",
					"internalType": "uint256"
				},
				{
					"name": "assetToBuy",
					"type": "address",
					"internalType": "address"
				},
				{
					"name": "orderStatus",
					"type": "uint8",
					"internalType": "enum IWarehouse13.OrderStatus"
				}
			],
			"stateMutability": "view"
		},
		{
			"type": "function",
			"name": "ai",
			"inputs": [],
			"outputs": [
				{
					"name": "",
					"type": "address",
					"internalType": "address"
				}
			],
			"stateMutability": "view"
		},
		{
			"type": "function",
			"name": "checkLimits",
			"inputs": [
				{
					"name": "_isSell",
					"type": "bool",
					"internalType": "bool"
				},
				{
					"name": "_amount",
					"type": "uint256",
					"internalType": "uint256"
				},
				{
					"name": "_asset",
					"type": "address",
					"internalType": "address"
				}
			],
			"outputs": [
				{
					"name": "_status",
					"type": "uint8",
					"internalType": "enum IWarehouse13.CheckStatus"
				}
			],
			"stateMutability": "view"
		},
		{
			"type": "function",
			"name": "claimVesting",
			"inputs": [],
			"outputs": [],
			"stateMutability": "nonpayable"
		},
		{
			"type": "function",
			"name": "cooldown",
			"inputs": [],
			"outputs": [
				{
					"name": "",
					"type": "uint256",
					"internalType": "uint256"
				}
			],
			"stateMutability": "view"
		},
		{
			"type": "function",
			"name": "depositAsset",
			"inputs": [
				{
					"name": "_orderId",
					"type": "uint256",
					"internalType": "uint256"
				},
				{
					"name": "_amount",
					"type": "uint256",
					"internalType": "uint256"
				}
			],
			"outputs": [],
			"stateMutability": "nonpayable"
		},
		{
			"type": "function",
			"name": "getProcessedOrderCount",
			"inputs": [],
			"outputs": [
				{
					"name": "",
					"type": "uint256",
					"internalType": "uint256"
				}
			],
			"stateMutability": "view"
		},
		{
			"type": "function",
			"name": "getProcessedOrderIdsRange",
			"inputs": [
				{
					"name": "start",
					"type": "uint256",
					"internalType": "uint256"
				},
				{
					"name": "end",
					"type": "uint256",
					"internalType": "uint256"
				}
			],
			"outputs": [
				{
					"name": "",
					"type": "uint256[]",
					"internalType": "uint256[]"
				}
			],
			"stateMutability": "view"
		},
		{
			"type": "function",
			"name": "initialize",
			"inputs": [
				{
					"name": "_svfToken",
					"type": "address",
					"internalType": "address"
				},
				{
					"name": "_vaultOwner",
					"type": "address",
					"internalType": "address"
				},
				{
					"name": "_ai",
					"type": "address",
					"internalType": "address"
				}
			],
			"outputs": [],
			"stateMutability": "nonpayable"
		},
		{
			"type": "function",
			"name": "lastDeploymentWeek",
			"inputs": [],
			"outputs": [
				{
					"name": "",
					"type": "uint256",
					"internalType": "uint256"
				}
			],
			"stateMutability": "view"
		},
		{
			"type": "function",
			"name": "master42Address",
			"inputs": [],
			"outputs": [
				{
					"name": "",
					"type": "address",
					"internalType": "address"
				}
			],
			"stateMutability": "view"
		},
		{
			"type": "function",
			"name": "maxDeploymentPerTradePercent",
			"inputs": [],
			"outputs": [
				{
					"name": "",
					"type": "uint256",
					"internalType": "uint256"
				}
			],
			"stateMutability": "view"
		},
		{
			"type": "function",
			"name": "maxDeploymentSizeThisWeek",
			"inputs": [],
			"outputs": [
				{
					"name": "",
					"type": "uint256",
					"internalType": "uint256"
				}
			],
			"stateMutability": "view"
		},
		{
			"type": "function",
			"name": "maxWeeklyDeploymentPercent",
			"inputs": [],
			"outputs": [
				{
					"name": "",
					"type": "uint256",
					"internalType": "uint256"
				}
			],
			"stateMutability": "view"
		},
		{
			"type": "function",
			"name": "nextOrderId",
			"inputs": [],
			"outputs": [
				{
					"name": "",
					"type": "uint256",
					"internalType": "uint256"
				}
			],
			"stateMutability": "view"
		},
		{
			"type": "function",
			"name": "owner",
			"inputs": [],
			"outputs": [
				{
					"name": "",
					"type": "address",
					"internalType": "address"
				}
			],
			"stateMutability": "view"
		},
		{
			"type": "function",
			"name": "ownerWithdraw",
			"inputs": [
				{
					"name": "_token",
					"type": "address",
					"internalType": "address"
				},
				{
					"name": "_amount",
					"type": "uint256",
					"internalType": "uint256"
				},
				{
					"name": "_recipient",
					"type": "address",
					"internalType": "address"
				}
			],
			"outputs": [],
			"stateMutability": "nonpayable"
		},
		{
			"type": "function",
			"name": "pendingOwner",
			"inputs": [],
			"outputs": [
				{
					"name": "",
					"type": "address",
					"internalType": "address"
				}
			],
			"stateMutability": "view"
		},
		{
			"type": "function",
			"name": "processedOrderIds",
			"inputs": [
				{
					"name": "",
					"type": "uint256",
					"internalType": "uint256"
				}
			],
			"outputs": [
				{
					"name": "",
					"type": "uint256",
					"internalType": "uint256"
				}
			],
			"stateMutability": "view"
		},
		{
			"type": "function",
			"name": "proxiableUUID",
			"inputs": [],
			"outputs": [
				{
					"name": "",
					"type": "bytes32",
					"internalType": "bytes32"
				}
			],
			"stateMutability": "view"
		},
		{
			"type": "function",
			"name": "publishAGI",
			"inputs": [
				{
					"name": "_orderType",
					"type": "uint8",
					"internalType": "uint8"
				},
				{
					"name": "_assetToSell",
					"type": "address",
					"internalType": "address"
				},
				{
					"name": "_amountToSell",
					"type": "uint256",
					"internalType": "uint256"
				},
				{
					"name": "_assetToBuy",
					"type": "address",
					"internalType": "address"
				}
			],
			"outputs": [],
			"stateMutability": "nonpayable"
		},
		{
			"type": "function",
			"name": "renounceOwnership",
			"inputs": [],
			"outputs": [],
			"stateMutability": "nonpayable"
		},
		{
			"type": "function",
			"name": "setAGISolverAddress",
			"inputs": [
				{
					"name": "_newSolverAddress",
					"type": "address",
					"internalType": "address"
				}
			],
			"outputs": [],
			"stateMutability": "nonpayable"
		},
		{
			"type": "function",
			"name": "setMaster42Address",
			"inputs": [
				{
					"name": "_newMaster42Address",
					"type": "address",
					"internalType": "address"
				}
			],
			"outputs": [],
			"stateMutability": "nonpayable"
		},
		{
			"type": "function",
			"name": "setVestingAddress",
			"inputs": [
				{
					"name": "_vesting",
					"type": "address",
					"internalType": "address"
				}
			],
			"outputs": [],
			"stateMutability": "nonpayable"
		},
		{
			"type": "function",
			"name": "setWhitelistTokens",
			"inputs": [
				{
					"name": "_tokens",
					"type": "address[]",
					"internalType": "address[]"
				},
				{
					"name": "_status",
					"type": "bool[]",
					"internalType": "bool[]"
				}
			],
			"outputs": [],
			"stateMutability": "nonpayable"
		},
		{
			"type": "function",
			"name": "svfToken",
			"inputs": [],
			"outputs": [
				{
					"name": "",
					"type": "address",
					"internalType": "address"
				}
			],
			"stateMutability": "view"
		},
		{
			"type": "function",
			"name": "transferOwnership",
			"inputs": [
				{
					"name": "newOwner",
					"type": "address",
					"internalType": "address"
				}
			],
			"outputs": [],
			"stateMutability": "nonpayable"
		},
		{
			"type": "function",
			"name": "updateAiAddress",
			"inputs": [
				{
					"name": "_newAiAddress",
					"type": "address",
					"internalType": "address"
				}
			],
			"outputs": [],
			"stateMutability": "nonpayable"
		},
		{
			"type": "function",
			"name": "updateCoolDown",
			"inputs": [
				{
					"name": "_cooldown",
					"type": "uint256",
					"internalType": "uint256"
				}
			],
			"outputs": [],
			"stateMutability": "nonpayable"
		},
		{
			"type": "function",
			"name": "updateMaxDeploymentPerTradePercent",
			"inputs": [
				{
					"name": "_maxDeploymentPerTradePercent",
					"type": "uint256",
					"internalType": "uint256"
				}
			],
			"outputs": [],
			"stateMutability": "nonpayable"
		},
		{
			"type": "function",
			"name": "updateMaxWeeklyDeploymentPercent",
			"inputs": [
				{
					"name": "_maxWeeklyDeploymentPercent",
					"type": "uint256",
					"internalType": "uint256"
				}
			],
			"outputs": [],
			"stateMutability": "nonpayable"
		},
		{
			"type": "function",
			"name": "updateVestingRecipient",
			"inputs": [
				{
					"name": "_newRecipient",
					"type": "address",
					"internalType": "address"
				}
			],
			"outputs": [],
			"stateMutability": "nonpayable"
		},
		{
			"type": "function",
			"name": "upgradeToAndCall",
			"inputs": [
				{
					"name": "newImplementation",
					"type": "address",
					"internalType": "address"
				},
				{
					"name": "data",
					"type": "bytes",
					"internalType": "bytes"
				}
			],
			"outputs": [],
			"stateMutability": "payable"
		},
		{
			"type": "function",
			"name": "vesting",
			"inputs": [],
			"outputs": [
				{
					"name": "",
					"type": "address",
					"internalType": "contract Vesting"
				}
			],
			"stateMutability": "view"
		},
		{
			"type": "function",
			"name": "viewAGI",
			"inputs": [
				{
					"name": "_orderId",
					"type": "uint256",
					"internalType": "uint256"
				}
			],
			"outputs": [
				{
					"name": "",
					"type": "tuple",
					"internalType": "struct IWarehouse13.AgentGeneratedIntent",
					"components": [
						{
							"name": "orderType",
							"type": "uint8",
							"internalType": "uint8"
						},
						{
							"name": "orderId",
							"type": "uint256",
							"internalType": "uint256"
						},
						{
							"name": "assetToSell",
							"type": "address",
							"internalType": "address"
						},
						{
							"name": "amountToSell",
							"type": "uint256",
							"internalType": "uint256"
						},
						{
							"name": "assetToBuy",
							"type": "address",
							"internalType": "address"
						},
						{
							"name": "orderStatus",
							"type": "uint8",
							"internalType": "enum IWarehouse13.OrderStatus"
						}
					]
				}
			],
			"stateMutability": "view"
		},
		{
			"type": "function",
			"name": "weeklyDeployment",
			"inputs": [],
			"outputs": [
				{
					"name": "",
					"type": "uint256",
					"internalType": "uint256"
				}
			],
			"stateMutability": "view"
		},
		{
			"type": "function",
			"name": "whitelistToken",
			"inputs": [
				{
					"name": "token",
					"type": "address",
					"internalType": "address"
				}
			],
			"outputs": [
				{
					"name": "isWhitelistToken",
					"type": "bool",
					"internalType": "bool"
				}
			],
			"stateMutability": "view"
		},
		{
			"type": "function",
			"name": "withdrawAsset",
			"inputs": [
				{
					"name": "_orderId",
					"type": "uint256",
					"internalType": "uint256"
				}
			],
			"outputs": [],
			"stateMutability": "nonpayable"
		},
		{
			"type": "event",
			"name": "AGIPublished",
			"inputs": [
				{
					"name": "orderId",
					"type": "uint256",
					"indexed": true,
					"internalType": "uint256"
				},
				{
					"name": "assetToSell",
					"type": "address",
					"indexed": false,
					"internalType": "address"
				},
				{
					"name": "amountToSell",
					"type": "uint256",
					"indexed": false,
					"internalType": "uint256"
				},
				{
					"name": "assetToBuy",
					"type": "address",
					"indexed": false,
					"internalType": "address"
				},
				{
					"name": "orderType",
					"type": "uint8",
					"indexed": false,
					"internalType": "uint8"
				},
				{
					"name": "orderStatus",
					"type": "uint8",
					"indexed": false,
					"internalType": "uint8"
				}
			],
			"anonymous": false
		},
		{
			"type": "event",
			"name": "AGISolverAddressUpdated",
			"inputs": [
				{
					"name": "oldSolver",
					"type": "address",
					"indexed": true,
					"internalType": "address"
				},
				{
					"name": "newSolver",
					"type": "address",
					"indexed": true,
					"internalType": "address"
				}
			],
			"anonymous": false
		},
		{
			"type": "event",
			"name": "AiAddressUpdated",
			"inputs": [
				{
					"name": "oldAi",
					"type": "address",
					"indexed": false,
					"internalType": "address"
				},
				{
					"name": "newAi",
					"type": "address",
					"indexed": false,
					"internalType": "address"
				}
			],
			"anonymous": false
		},
		{
			"type": "event",
			"name": "AssetDeposited",
			"inputs": [
				{
					"name": "user",
					"type": "address",
					"indexed": true,
					"internalType": "address"
				},
				{
					"name": "asset",
					"type": "address",
					"indexed": true,
					"internalType": "address"
				},
				{
					"name": "amount",
					"type": "uint256",
					"indexed": true,
					"internalType": "uint256"
				}
			],
			"anonymous": false
		},
		{
			"type": "event",
			"name": "AssetWithdrawn",
			"inputs": [
				{
					"name": "user",
					"type": "address",
					"indexed": true,
					"internalType": "address"
				},
				{
					"name": "asset",
					"type": "address",
					"indexed": true,
					"internalType": "address"
				},
				{
					"name": "amount",
					"type": "uint256",
					"indexed": true,
					"internalType": "uint256"
				}
			],
			"anonymous": false
		},
		{
			"type": "event",
			"name": "Initialized",
			"inputs": [
				{
					"name": "version",
					"type": "uint64",
					"indexed": false,
					"internalType": "uint64"
				}
			],
			"anonymous": false
		},
		{
			"type": "event",
			"name": "Master42AddressUpdated",
			"inputs": [
				{
					"name": "oldMaster42",
					"type": "address",
					"indexed": true,
					"internalType": "address"
				},
				{
					"name": "newMaster42",
					"type": "address",
					"indexed": true,
					"internalType": "address"
				}
			],
			"anonymous": false
		},
		{
			"type": "event",
			"name": "OrderProcessed",
			"inputs": [
				{
					"name": "orderId",
					"type": "uint256",
					"indexed": true,
					"internalType": "uint256"
				},
				{
					"name": "timestamp",
					"type": "uint256",
					"indexed": false,
					"internalType": "uint256"
				}
			],
			"anonymous": false
		},
		{
			"type": "event",
			"name": "OwnerWithdrawn",
			"inputs": [
				{
					"name": "token",
					"type": "address",
					"indexed": true,
					"internalType": "address"
				},
				{
					"name": "recipient",
					"type": "address",
					"indexed": true,
					"internalType": "address"
				},
				{
					"name": "amount",
					"type": "uint256",
					"indexed": false,
					"internalType": "uint256"
				}
			],
			"anonymous": false
		},
		{
			"type": "event",
			"name": "OwnershipTransferStarted",
			"inputs": [
				{
					"name": "previousOwner",
					"type": "address",
					"indexed": true,
					"internalType": "address"
				},
				{
					"name": "newOwner",
					"type": "address",
					"indexed": true,
					"internalType": "address"
				}
			],
			"anonymous": false
		},
		{
			"type": "event",
			"name": "OwnershipTransferred",
			"inputs": [
				{
					"name": "previousOwner",
					"type": "address",
					"indexed": true,
					"internalType": "address"
				},
				{
					"name": "newOwner",
					"type": "address",
					"indexed": true,
					"internalType": "address"
				}
			],
			"anonymous": false
		},
		{
			"type": "event",
			"name": "SVFDeposited",
			"inputs": [
				{
					"name": "user",
					"type": "address",
					"indexed": true,
					"internalType": "address"
				},
				{
					"name": "svfAmount",
					"type": "uint256",
					"indexed": true,
					"internalType": "uint256"
				},
				{
					"name": "asset",
					"type": "address",
					"indexed": true,
					"internalType": "address"
				}
			],
			"anonymous": false
		},
		{
			"type": "event",
			"name": "SVFWithdrawn",
			"inputs": [
				{
					"name": "user",
					"type": "address",
					"indexed": true,
					"internalType": "address"
				},
				{
					"name": "svfAmount",
					"type": "uint256",
					"indexed": true,
					"internalType": "uint256"
				},
				{
					"name": "asset",
					"type": "address",
					"indexed": true,
					"internalType": "address"
				}
			],
			"anonymous": false
		},
		{
			"type": "event",
			"name": "SetVestingAddress",
			"inputs": [
				{
					"name": "oldVesting",
					"type": "address",
					"indexed": false,
					"internalType": "address"
				},
				{
					"name": "newVesting",
					"type": "address",
					"indexed": false,
					"internalType": "address"
				}
			],
			"anonymous": false
		},
		{
			"type": "event",
			"name": "SetWhitelistTokens",
			"inputs": [
				{
					"name": "tokens",
					"type": "address[]",
					"indexed": false,
					"internalType": "address[]"
				},
				{
					"name": "status",
					"type": "bool[]",
					"indexed": false,
					"internalType": "bool[]"
				}
			],
			"anonymous": false
		},
		{
			"type": "event",
			"name": "UpdateCoolDown",
			"inputs": [
				{
					"name": "oldCooldown",
					"type": "uint256",
					"indexed": false,
					"internalType": "uint256"
				},
				{
					"name": "newCooldown",
					"type": "uint256",
					"indexed": false,
					"internalType": "uint256"
				}
			],
			"anonymous": false
		},
		{
			"type": "event",
			"name": "UpdateMaxDeploymentPerTradePercent",
			"inputs": [
				{
					"name": "oldMaxDeploymentPerTradePercent",
					"type": "uint256",
					"indexed": false,
					"internalType": "uint256"
				},
				{
					"name": "newMaxDeploymentPerTradePercent",
					"type": "uint256",
					"indexed": false,
					"internalType": "uint256"
				}
			],
			"anonymous": false
		},
		{
			"type": "event",
			"name": "UpdateMaxWeeklyDeploymentPercent",
			"inputs": [
				{
					"name": "oldMaxWeeklyDeploymentPercent",
					"type": "uint256",
					"indexed": false,
					"internalType": "uint256"
				},
				{
					"name": "newMaxWeeklyDeploymentPercent",
					"type": "uint256",
					"indexed": false,
					"internalType": "uint256"
				}
			],
			"anonymous": false
		},
		{
			"type": "event",
			"name": "UpdateVestingRecipient",
			"inputs": [
				{
					"name": "newRecipient",
					"type": "address",
					"indexed": false,
					"internalType": "address"
				}
			],
			"anonymous": false
		},
		{
			"type": "event",
			"name": "Upgraded",
			"inputs": [
				{
					"name": "implementation",
					"type": "address",
					"indexed": true,
					"internalType": "address"
				}
			],
			"anonymous": false
		},
		{
			"type": "error",
			"name": "AddressEmptyCode",
			"inputs": [
				{
					"name": "target",
					"type": "address",
					"internalType": "address"
				}
			]
		},
		{
			"type": "error",
			"name": "CoolDownNotOver",
			"inputs": []
		},
		{
			"type": "error",
			"name": "ERC1967InvalidImplementation",
			"inputs": [
				{
					"name": "implementation",
					"type": "address",
					"internalType": "address"
				}
			]
		},
		{
			"type": "error",
			"name": "ERC1967NonPayable",
			"inputs": []
		},
		{
			"type": "error",
			"name": "ExceedDeploymentPerTrade",
			"inputs": []
		},
		{
			"type": "error",
			"name": "ExceedWeeklyDeploymentLimit",
			"inputs": []
		},
		{
			"type": "error",
			"name": "FailedCall",
			"inputs": []
		},
		{
			"type": "error",
			"name": "InsufficientBalance",
			"inputs": []
		},
		{
			"type": "error",
			"name": "InvalidInitialization",
			"inputs": []
		},
		{
			"type": "error",
			"name": "InvalidOrderId",
			"inputs": []
		},
		{
			"type": "error",
			"name": "InvalidOrderStatus",
			"inputs": []
		},
		{
			"type": "error",
			"name": "InvalidOrderType",
			"inputs": []
		},
		{
			"type": "error",
			"name": "InvalidTrade",
			"inputs": []
		},
		{
			"type": "error",
			"name": "NoAccess",
			"inputs": []
		},
		{
			"type": "error",
			"name": "NotInitializing",
			"inputs": []
		},
		{
			"type": "error",
			"name": "NotWhitelistToken",
			"inputs": []
		},
		{
			"type": "error",
			"name": "OwnableInvalidOwner",
			"inputs": [
				{
					"name": "owner",
					"type": "address",
					"internalType": "address"
				}
			]
		},
		{
			"type": "error",
			"name": "OwnableUnauthorizedAccount",
			"inputs": [
				{
					"name": "account",
					"type": "address",
					"internalType": "address"
				}
			]
		},
		{
			"type": "error",
			"name": "ReentrancyGuardReentrantCall",
			"inputs": []
		},
		{
			"type": "error",
			"name": "SafeERC20FailedOperation",
			"inputs": [
				{
					"name": "token",
					"type": "address",
					"internalType": "address"
				}
			]
		},
		{
			"type": "error",
			"name": "UUPSUnauthorizedCallContext",
			"inputs": []
		},
		{
			"type": "error",
			"name": "UUPSUnsupportedProxiableUUID",
			"inputs": [
				{
					"name": "slot",
					"type": "bytes32",
					"internalType": "bytes32"
				}
			]
		},
		{
			"type": "error",
			"name": "ZeroValue",
			"inputs": []
		}
	],
	"bytecode": {
		"object": "0x60a080604052346100e857306080527ff0c57e16840df040f15088dc2f81fe391c3923bec73e23a9662efc9c229c6a005460ff8160401c166100d9576002600160401b03196001600160401b03821601610073575b60405161256090816100ed823960805181818161171601526118800152f35b6001600160401b0319166001600160401b039081177ff0c57e16840df040f15088dc2f81fe391c3923bec73e23a9662efc9c229c6a005581527fc7f505b2f371ae2175ee4913f4499e1f2633a7b5936321eed1cdaeb6115181d290602090a15f80610054565b63f92ee8a960e01b5f5260045ffd5b5f80fdfe6080806040526004361015610012575f80fd5b5f905f3560e01c908163023cc06414611fd757508063044edc3c14611e12578063061d54bf14611d9f5780631e28f49f14611d775780632a58b33014611d5a5780633319daee14611cfe578063331d936414611b2357806344c63eec14611afb5780634e10635214611a2f5780634f1ef2861461180457806350797c6a146117e657806352705cb41461176a57806352d1902d146117035780636247f6f2146116c457806368be1b1e1461169b578063715018a61461161c578063787a08a6146115fe57806379ba5097146115ae57806380a8e1271461147c578063847edc841461145357806387bbafb1146114355780638d92fdf3146110265780638da5cb5b14610ff1578063a6b33e8514610fd3578063a888f77614610d41578063ad3cb1cc14610ce5578063b07ed89f14610cbe578063b578ac0a14610c37578063ba67e9a514610c19578063ba73d2ab14610b84578063c0c53b8b1461095d578063c5f06885146108dc578063cf418d90146108a2578063e0b68f8a14610649578063e30c397814610614578063e33591b1146105f6578063e4d75c9d14610560578063e85c39ed146103c4578063f2fde38b1461033e578063f3c74543146102e9578063f9ac0165146102585763fedda89c146101ec575f80fd5b34610247578060031936011261024757600d5481906001600160a01b0316803b1561025557818091600460405180948193634e71d92d60e01b83525af1801561024a576102365750f35b8161024091612094565b6102475780f35b80fd5b6040513d84823e3d90fd5b50fd5b50346102475760603660031901126102475760043580151581036102e55761027e612007565b6001600160a01b0381168352600f602052604083205490919060ff16156102d657906102ad91602435906121c0565b6040519060048110156102c257602092508152f35b634e487b7160e01b83526021600452602483fd5b637182e3a960e01b8352600483fd5b5080fd5b5034610247576020366003190112610247576004356103066122d3565b7fe54abd71d5bfcd010a9afd9b82fa4f6d9873e50f949a087bd32aff503a8a8b8760406007548151908152836020820152a160075580f35b503461024757602036600319011261024757610358611ff1565b6103606122d3565b5f8051602061250b83398151915280546001600160a01b0319166001600160a01b039283169081179091555f8051602061248b833981519152549091167f38d16b8cac22d99fc7c124b9cd0de2d3fa1faef420bfe791d8c362d765e227008380a380f35b5034610247576103d3366120f3565b600354908183101561052257808310156104dd57818111156104d55750915b8183039283116104c15761041e61040884612195565b936104166040519586612094565b808552612195565b602084019290601f1901368437815b845181101561047f576104486104438284612174565b612109565b90549060031b1c855182101561046b57600582901b86016020015260010161042d565b634e487b7160e01b84526032600452602484fd5b50506040805160208082529451948101859052938493918401925b8181106104a8575050500390f35b825184528594506020938401939092019160010161049a565b634e487b7160e01b81526011600452602490fd5b9050916103f2565b60405162461bcd60e51b815260206004820152601e60248201527f456e64206d7573742062652067726561746572207468616e20737461727400006044820152606490fd5b60405162461bcd60e51b81526020600482015260166024820152755374617274206964206f7574206f6620626f756e647360501b6044820152606490fd5b50346102475760203660031901126102475761057a611ff1565b6105826122d3565b6001600160a01b0381169081156105e757600d54604080516001600160a01b03808416825293909316602084015290917f342f67bf5d9d1524a2207d146619736bf8a55f9c69d5ff3d22abca84d2b643949190a16001600160a01b03191617600d5580f35b637c946ed760e01b8352600483fd5b50346102475780600319360112610247576020600b54604051908152f35b50346102475780600319360112610247575f8051602061250b833981519152546040516001600160a01b039091168152602090f35b50346102475760803660031901126102475760043560ff81168091036102e55761067161201d565b604435916064356001600160a01b038116929083900361089e576005546001600160a01b03163314158061087d575b80610868575b61085957831561084a576001600160a01b0316808552600f602052604085205490929060ff161561083b57808552600f60205260ff6040862054161561083b5780831461082c57600154935f19851461081857600185016001558585600460405161071081612064565b868152602080820184815260408084018b815260608501898152608086018b815260a087018a8152988a52600295869052929098209451855460ff191660ff9190911617855591516001850155905191830180546001600160a01b03199081166001600160a01b039485161790915595516003808501919091559051939092018054909516921691909117835590519081101561080457917ffae5da05a2c7e9044b0871ffdc609e6eb6b2ba8a2cc12acc0e1273df90bd001795939160a0959381549060ff881b90881b169060ff881b1916179055604051938452602084015260408301526060820152846080820152a280f35b634e487b7160e01b88526021600452602488fd5b634e487b7160e01b86526011600452602486fd5b63d69b537960e01b8552600485fd5b637182e3a960e01b8552600485fd5b637c946ed760e01b8552600485fd5b63160d3af160e11b8552600485fd5b506006546001600160a01b03163314156106a6565b505f8051602061248b833981519152546001600160a01b03163314156106a0565b8480fd5b503461024757602036600319011261024757600435906003548210156102475760206108cd83612109565b90549060031b1c604051908152f35b5034610247576020366003190112610247576108f6611ff1565b6108fe6122d3565b6001600160a01b0316801561094e5781546001600160a01b03198116821783556001600160a01b03167f10edb8d21b6fe8dcebd5a13732e6d7366ba7e17bf44aa156b95022b8320ce6478380a380f35b637c946ed760e01b8252600482fd5b503461024757606036600319011261024757610977611ff1565b61097f61201d565b610987612007565b905f805160206124eb833981519152549260ff8460401c16159367ffffffffffffffff811680159081610b7c575b6001149081610b72575b159081610b69575b50610b5a5767ffffffffffffffff1981166001175f805160206124eb8339815191525584610b2e575b506001600160a01b031691821561084a576001600160a01b031690811561084a57610a19612401565b610a21612401565b6001600160a01b03811615610b1a57610a3990612306565b610a41612401565b610a49612401565b610a51612401565b610a59612401565b60015f805160206124cb833981519152556bffffffffffffffffffffffff60a01b60055416176005556bffffffffffffffffffffffff60a01b60045416176004556001805562093a80600755600a600855609660095581600a5581600b5581600c55610ac25780f35b68ff0000000000000000195f805160206124eb83398151915254165f805160206124eb833981519152557fc7f505b2f371ae2175ee4913f4499e1f2633a7b5936321eed1cdaeb6115181d2602060405160018152a180f35b631e4fbdf760e01b85526004859052602485fd5b68ffffffffffffffffff191668010000000000000001175f805160206124eb833981519152555f6109f0565b63f92ee8a960e01b8652600486fd5b9050155f6109c7565b303b1591506109bf565b8691506109b5565b503461024757602036600319011261024757600435610ba16122d3565b6103e88111610be2577f0ed20a937d9102fee6d143ac632dbb555f747cc2e35eaece077010dc3074aa2360406008548151908152836020820152a160085580f35b60405162461bcd60e51b815260206004820152600f60248201526e125b9d985b1a59081c195c98d95b9d608a1b6044820152606490fd5b50346102475780600319360112610247576020600354604051908152f35b503461024757602036600319011261024757610c51611ff1565b610c596122d3565b6001600160a01b0381169081156105e757600554604080516001600160a01b03808416825293909316602084015290917f23472b9cf7c2a62ebfd23ceb2828085a4790b289e7ab4fbd6708cbef98993c0c9190a16001600160a01b0319161760055580f35b5034610247578060031936011261024757546040516001600160a01b039091168152602090f35b503461024757806003193601126102475760408051610d048282612094565b6005815260208101640352e302e360dc1b81528251938492602084525180928160208601528585015e828201840152601f01601f19168101030190f35b503461024757610d50366120f3565b9060018060a01b036005541633141580610fb2575b80610f9e575b610f8f576001548110801590610f87575b610f785781156105e757610d8e612371565b808352600260205260408320600481019283549260018060a01b0384169360ff845416610f695760a01c60ff166003811015610f5557600103610f4657610e056040516323b872dd60e01b602082015233602482015230604482015283606482015260648152610dff608482612094565b856123a9565b845460ff60a01b1916600160a11b17855560035468010000000000000000811015610f3257806001610e3a9201600355612109565b81549060031b9083821b915f19901b19161790557fa72954bf82a02979408df189cd39e5f8ced72a87fc687cbfb63201dcd0c95c326020604051428152a26004546001600160a01b031692808403610f08575060028201546001600160a01b031690337fcfdbd8f91afc39c3ece6b3a56830cfd510eecdb2f280d3bf916d6b6ec0f00eab8780a45b600201546001600160a01b031614610eea575b5060015f805160206124cb8339815191525580f35b546001600160a01b03168152600e602052604081204290555f610ed5565b337f01527be533d184d44e3111afa7800fa60ced6e1b44bd025f8b457deb8ce0ce358780a4610ec2565b634e487b7160e01b87526041600452602487fd5b632916ae3360e01b8652600486fd5b634e487b7160e01b87526021600452602487fd5b63688c176f60e01b8752600487fd5b635d70603360e01b8352600483fd5b508015610d7c565b63160d3af160e11b8352600483fd5b5082546001600160a01b0316331415610d6b565b505f8051602061248b833981519152546001600160a01b0316331415610d65565b50346102475780600319360112610247576020600854604051908152f35b50346102475780600319360112610247575f8051602061248b833981519152546040516001600160a01b039091168152602090f35b50346102475760203660031901126102475760043560018060a01b036005541633141580611414575b80611400575b6113f15760015481108015906113e9575b6113da57611072612371565b815260026020526040812060038101549060018060a01b03600282015416600482019160ff835460a01c1660038110156113c6576113b7575460ff166113a8576004546001600160a01b0316810361137a57600d5484906001600160a01b0316803b156102e557818091600460405180948193634e71d92d60e01b83525af1801561024a57611361575b5050602462093a804204602060018060a01b0360045416604051938480926370a0823160e01b82523060048301525afa918215611356578692611322575b5080600a54036112ff575b505061115383600b54612174565b80600b55600c548091116112f0576111716103e891600854906121ad565b0483116112e1575b6040516370a0823160e01b8152306004820152602081602481855afa80156112d6578491869161129d575b501061128e57821561127f57331561127f576111ea60405163a9059cbb60e01b6020820152336024820152846044820152604481526111e4606482612094565b826123a9565b815460ff60a01b1916600160a01b1782556004546001600160a01b031681036112535750546001600160a01b031690337ff074ccec04d26cc32752c52d3241c0b2210f1a2ebf22aaebe2d76101c84fbfd38480a45b60015f805160206124cb8339815191525580f35b9050337f6f9cbac839b826cc524f53d10416c053fce34ec15fd1001720e777cc49720e768480a461123f565b637c946ed760e01b8452600484fd5b631e9acf1760e31b8452600484fd5b9150506020813d6020116112ce575b816112b960209383612094565b810103126112ca578390515f6111a4565b5f80fd5b3d91506112ac565b6040513d87823e3d90fd5b63665d975960e01b8452600484fd5b63944cc66360e01b8552600485fd5b6103e8916113179187600b55600a55600954906121ad565b04600c555f80611145565b9091506020813d60201161134e575b8161133e60209383612094565b810103126112ca5751905f61113a565b3d9150611331565b6040513d88823e3d90fd5b8161136b91612094565b61137657835f6110fc565b8380fd5b808452600e602052611393604085205460075490612174565b42101561117957628f7c9b60e41b8452600484fd5b63688c176f60e01b8452600484fd5b632916ae3360e01b8552600485fd5b634e487b7160e01b86526021600452602486fd5b635d70603360e01b8252600482fd5b508015611066565b63160d3af160e11b8252600482fd5b5081546001600160a01b0316331415611055565b505f8051602061248b833981519152546001600160a01b031633141561104f565b50346102475780600319360112610247576020600c54604051908152f35b50346102475780600319360112610247576004546040516001600160a01b039091168152602090f35b5034610247576020366003190112610247576004358160a06040516114a081612064565b828152826020820152826040820152826060820152826080820152015260015481108015906115a6575b6113da578152600260205260408120604051906114e682612064565b60ff81541682526001810154906020830191825260018060a01b036002820154166040840190815260046003830154926060860193845201549260ff608086019460018060a01b038116865260a01c1660a086019660038210156115925750865260408051955160ff1686529051602086015290516001600160a01b0390811691850191909152905160608401529051166080820152905160c091906115909060a08301906120d2565bf35b634e487b7160e01b81526021600452602490fd5b5080156114ca565b50346102475780600319360112610247575f8051602061250b83398151915254336001600160a01b03909116036115eb576115e833612306565b80f35b63118cdaa760e01b815233600452602490fd5b50346102475780600319360112610247576020600754604051908152f35b50346102475780600319360112610247576116356122d3565b5f8051602061250b83398151915280546001600160a01b03199081169091555f8051602061248b8339815191528054918216905581906001600160a01b03167f8be0079c531659141344cd1fd0a4f28419497f9722a3daafe3b4186f6b6457e08280a380f35b50346102475780600319360112610247576005546040516001600160a01b039091168152602090f35b50346102475760203660031901126102475760209060ff906040906001600160a01b036116ef611ff1565b168152600f84522054166040519015158152f35b50346102475780600319360112610247577f00000000000000000000000000000000000000000000000000000000000000006001600160a01b0316300361175b5760206040515f805160206124ab8339815191528152f35b63703e46dd60e11b8152600490fd5b503461024757602036600319011261024757604060c091600435815260026020522061159060ff8254169160018101549060018060a01b03600282015416600460038301549201549260405195865260208601526040850152606084015260018060a01b038116608084015260ff60a084019160a01c166120d2565b50346102475780600319360112610247576020600954604051908152f35b50604036600319011261024757611819611ff1565b6024359067ffffffffffffffff8211611a2b5736602383011215611a2b5781600401359083611847836120b6565b936118556040519586612094565b83855260208501933660248284010111611a2b57806024602093018637850101526001600160a01b037f000000000000000000000000000000000000000000000000000000000000000016308114908115611a09575b506119fa576118b86122d3565b6040516352d1902d60e01b81526001600160a01b0382169390602081600481885afa8691816119c2575b506118fb57634c9c8ce360e01b86526004859052602486fd5b93845f805160206124ab8339815191528796036119b05750823b1561199e575f805160206124ab83398151915280546001600160a01b031916821790558491907fbc7cd75a20ee27fd9adebab32041f755214dbc6bffa90cc0225b39da2e5c2d3b8380a28051156119835761197f9382915190845af4611979612135565b9161242c565b5080f35b505050503461198f5780f35b63b398979f60e01b8152600490fd5b634c9c8ce360e01b8552600452602484fd5b632a87526960e21b8652600452602485fd5b9091506020813d6020116119f2575b816119de60209383612094565b810103126119ee5751905f6118e2565b8680fd5b3d91506119d1565b63703e46dd60e11b8452600484fd5b5f805160206124ab833981519152546001600160a01b0316141590505f6118ab565b8280fd5b50346112ca5760203660031901126112ca57611a49611ff1565b611a516122d3565b6001600160a01b03168015611aec57600d546001600160a01b0316803b156112ca575f80916024604051809481936301ddf6a560e51b83528760048401525af18015611ae157611acb575b5060207f3ead53a04a693678abd6361e6d5067fdce511ca894fa9d829655f0a4978632e491604051908152a180f35b611ad89192505f90612094565b5f906020611a9c565b6040513d5f823e3d90fd5b637c946ed760e01b5f5260045ffd5b346112ca575f3660031901126112ca57600d546040516001600160a01b039091168152602090f35b346112ca5760403660031901126112ca5760043567ffffffffffffffff81116112ca57611b54903690600401612033565b60243567ffffffffffffffff81116112ca57611b74903690600401612033565b9092611b7e6122d3565b81831480611cf5575b15611ca657915f5b818110611c49575060405192816040850160408652526060840190915f905b808210611c1e57505060209150838103828501528281520192905f905b808210611bfa577fd8c7d2f131e48208f5f36e364289c85ac3e4df0a03fd96d205abb64859e5137584860385a1005b9091938435908115158092036112ca57602081600193829352019501920190611bcb565b909183356001600160a01b03811691908290036112ca57908152602093840193019160010190611bae565b611c57818487969496612164565b35908115158092036112ca57611c6e818685612164565b356001600160a01b03811692908390036112ca576001925f52600f60205260405f209060ff8019835416911617905501929092611b8f565b60405162461bcd60e51b815260206004820152602160248201527f57617265686f75736531333a20496e76616c696420696e707574206c656e67746044820152600d60fb1b6064820152608490fd5b50821515611b87565b346112ca5760203660031901126112ca57600435611d1a6122d3565b6103e88111610be2577f7376d645ec52149035d8b19d8f86d7c037a4ab3a0cd3a8b69bb408a7efeb6d3060406009548151908152836020820152a1600955005b346112ca575f3660031901126112ca576020600154604051908152f35b346112ca575f3660031901126112ca576006546040516001600160a01b039091168152602090f35b346112ca5760203660031901126112ca57611db8611ff1565b611dc06122d3565b6001600160a01b03168015611aec57600680546001600160a01b0319811683179091556001600160a01b03167f8d5ee66bc6d25a1c50478efccafe56900fdfb19b5ddd7c8e59438a493b48fb815f80a3005b346112ca5760603660031901126112ca57611e2b611ff1565b60243590611e37612007565b90611e406122d3565b6001600160a01b03169073eeeeeeeeeeeeeeeeeeeeeeeeeeeeeeeeeeeeeeee8203611f0457824710611ef5575f80808086855af1611e7c612135565b5015611eba5760207f94a52c597edbfb3aac8c58a7636b4c53452088eff45dc4e971bcd1177bc20675915b6040519485526001600160a01b031693a3005b60405162461bcd60e51b8152602060048201526013602482015272115512081d1c985b9cd9995c8819985a5b1959606a1b6044820152606490fd5b631e9acf1760e31b5f5260045ffd5b6040516370a0823160e01b8152306004820152602081602481865afa8015611ae15784915f91611fa2575b5010611ef5578215611aec576001600160a01b0381168015611aec577f94a52c597edbfb3aac8c58a7636b4c53452088eff45dc4e971bcd1177bc2067591611f9d6020926040519063a9059cbb60e01b85830152602482015286604482015260448152610dff606482612094565b611ea7565b9150506020813d602011611fcf575b81611fbe60209383612094565b810103126112ca5783905185611f2f565b3d9150611fb1565b346112ca575f3660031901126112ca57602090600a548152f35b600435906001600160a01b03821682036112ca57565b604435906001600160a01b03821682036112ca57565b602435906001600160a01b03821682036112ca57565b9181601f840112156112ca5782359167ffffffffffffffff83116112ca576020808501948460051b0101116112ca57565b60c0810190811067ffffffffffffffff82111761208057604052565b634e487b7160e01b5f52604160045260245ffd5b90601f8019910116810190811067ffffffffffffffff82111761208057604052565b67ffffffffffffffff811161208057601f01601f191660200190565b9060038210156120df5752565b634e487b7160e01b5f52602160045260245ffd5b60409060031901126112ca576004359060243590565b6003548110156121215760035f5260205f2001905f90565b634e487b7160e01b5f52603260045260245ffd5b3d1561215f573d90612146826120b6565b916121546040519384612094565b82523d5f602084013e565b606090565b91908110156121215760051b0190565b9190820180921161218157565b634e487b7160e01b5f52601160045260245ffd5b67ffffffffffffffff81116120805760051b60200190565b8181029291811591840414171561218157565b9091600b5490600c549262093a804204600a540361224b575b61221457506121e9838392612174565b1161220d576121fe6103e891600854906121ad565b0410612208575f90565b600190565b5050600290565b6001600160a01b03165f908152600e602052604090205460075461223c945092509050612174565b4210612246575f90565b600390565b925090505f906024602060018060a01b0360045416604051928380926370a0823160e01b82523060048301525afa908115611ae1575f9161229f575b506122986103e891600954906121ad565b04926121d9565b90506020813d6020116122cb575b816122ba60209383612094565b810103126112ca5751612298612287565b3d91506122ad565b5f8051602061248b833981519152546001600160a01b031633036122f357565b63118cdaa760e01b5f523360045260245ffd5b5f8051602061250b83398151915280546001600160a01b03199081169091555f8051602061248b83398151915280549182166001600160a01b0393841690811790915591167f8be0079c531659141344cd1fd0a4f28419497f9722a3daafe3b4186f6b6457e05f80a3565b60025f805160206124cb833981519152541461239a5760025f805160206124cb83398151915255565b633ee5aeb560e01b5f5260045ffd5b905f602091828151910182855af115611ae1575f513d6123f857506001600160a01b0381163b155b6123d85750565b635274afe760e01b5f9081526001600160a01b0391909116600452602490fd5b600114156123d1565b60ff5f805160206124eb8339815191525460401c161561241d57565b631afcd79f60e31b5f5260045ffd5b90612450575080511561244157805190602001fd5b63d6bda27560e01b5f5260045ffd5b81511580612481575b612461575090565b639996b31560e01b5f9081526001600160a01b0391909116600452602490fd5b50803b1561245956fe9016d09d72d40fdae2fd8ceac6b6234c7706214fd39c1cd1e609a0528c199300360894a13ba1a3210667c828492db98dca3e2076cc3735a920a3ca505d382bbc9b779b17422d0df92223018b32b4d1fa46e071723d6817e2486d003becc55f00f0c57e16840df040f15088dc2f81fe391c3923bec73e23a9662efc9c229c6a00237e158222e3e6968b72b9db0d8043aacf074ad9f650f0d1606b4d82ee432c00a26469706673582212202d90ccbcc9a59f70af6ee88d6746301ecaf5173faaa527a597850f92f4e3a1dc64736f6c634300081a0033",
		"linkReferences": {}
	},
	"methodIdentifiers": {
		"UPGRADE_INTERFACE_VERSION()": "ad3cb1cc",
		"acceptOwnership()": "79ba5097",
		"agiSolverAddress()": "b07ed89f",
		"agis(uint256)": "52705cb4",
		"ai()": "68be1b1e",
		"checkLimits(bool,uint256,address)": "f9ac0165",
		"claimVesting()": "fedda89c",
		"cooldown()": "787a08a6",
		"depositAsset(uint256,uint256)": "a888f776",
		"getProcessedOrderCount()": "ba67e9a5",
		"getProcessedOrderIdsRange(uint256,uint256)": "e85c39ed",
		"initialize(address,address,address)": "c0c53b8b",
		"lastDeploymentWeek()": "023cc064",
		"master42Address()": "1e28f49f",
		"maxDeploymentPerTradePercent()": "a6b33e85",
		"maxDeploymentSizeThisWeek()": "87bbafb1",
		"maxWeeklyDeploymentPercent()": "50797c6a",
		"nextOrderId()": "2a58b330",
		"owner()": "8da5cb5b",
		"ownerWithdraw(address,uint256,address)": "044edc3c",
		"pendingOwner()": "e30c3978",
		"processedOrderIds(uint256)": "cf418d90",
		"proxiableUUID()": "52d1902d",
		"publishAGI(uint8,address,uint256,address)": "e0b68f8a",
		"renounceOwnership()": "715018a6",
		"setAGISolverAddress(address)": "c5f06885",
		"setMaster42Address(address)": "061d54bf",
		"setVestingAddress(address)": "e4d75c9d",
		"setWhitelistTokens(address[],bool[])": "331d9364",
		"svfToken()": "847edc84",
		"transferOwnership(address)": "f2fde38b",
		"updateAiAddress(address)": "b578ac0a",
		"updateCoolDown(uint256)": "f3c74543",
		"updateMaxDeploymentPerTradePercent(uint256)": "ba73d2ab",
		"updateMaxWeeklyDeploymentPercent(uint256)": "3319daee",
		"updateVestingRecipient(address)": "4e106352",
		"upgradeToAndCall(address,bytes)": "4f1ef286",
		"vesting()": "44c63eec",
		"viewAGI(uint256)": "80a8e127",
		"weeklyDeployment()": "e33591b1",
		"whitelistToken(address)": "6247f6f2",
		"withdrawAsset(uint256)": "8d92fdf3"
	},
	"storageLayout": {
		"storage": [
			{
				"astId": 79100,
				"contract": "src/Warehouse13.sol:Warehouse13",
				"label": "agiSolverAddress",
				"offset": 0,
				"slot": "0",
				"type": "t_address"
			},
			{
				"astId": 79103,
				"contract": "src/Warehouse13.sol:Warehouse13",
				"label": "nextOrderId",
				"offset": 0,
				"slot": "1",
				"type": "t_uint256"
			},
			{
				"astId": 79108,
				"contract": "src/Warehouse13.sol:Warehouse13",
				"label": "agis",
				"offset": 0,
				"slot": "2",
				"type": "t_mapping(t_uint256,t_struct(AgentGeneratedIntent)83129_storage)"
			},
			{
				"astId": 79112,
				"contract": "src/Warehouse13.sol:Warehouse13",
				"label": "processedOrderIds",
				"offset": 0,
				"slot": "3",
				"type": "t_array(t_uint256)dyn_storage"
			},
			{
				"astId": 79118,
				"contract": "src/Warehouse13.sol:Warehouse13",
				"label": "svfToken",
				"offset": 0,
				"slot": "4",
				"type": "t_address"
			},
			{
				"astId": 79121,
				"contract": "src/Warehouse13.sol:Warehouse13",
				"label": "ai",
				"offset": 0,
				"slot": "5",
				"type": "t_address"
			},
			{
				"astId": 79124,
				"contract": "src/Warehouse13.sol:Warehouse13",
				"label": "master42Address",
				"offset": 0,
				"slot": "6",
				"type": "t_address"
			},
			{
				"astId": 79127,
				"contract": "src/Warehouse13.sol:Warehouse13",
				"label": "cooldown",
				"offset": 0,
				"slot": "7",
				"type": "t_uint256"
			},
			{
				"astId": 79129,
				"contract": "src/Warehouse13.sol:Warehouse13",
				"label": "maxDeploymentPerTradePercent",
				"offset": 0,
				"slot": "8",
				"type": "t_uint256"
			},
			{
				"astId": 79131,
				"contract": "src/Warehouse13.sol:Warehouse13",
				"label": "maxWeeklyDeploymentPercent",
				"offset": 0,
				"slot": "9",
				"type": "t_uint256"
			},
			{
				"astId": 79133,
				"contract": "src/Warehouse13.sol:Warehouse13",
				"label": "lastDeploymentWeek",
				"offset": 0,
				"slot": "10",
				"type": "t_uint256"
			},
			{
				"astId": 79135,
				"contract": "src/Warehouse13.sol:Warehouse13",
				"label": "weeklyDeployment",
				"offset": 0,
				"slot": "11",
				"type": "t_uint256"
			},
			{
				"astId": 79137,
				"contract": "src/Warehouse13.sol:Warehouse13",
				"label": "maxDeploymentSizeThisWeek",
				"offset": 0,
				"slot": "12",
				"type": "t_uint256"
			},
			{
				"astId": 79140,
				"contract": "src/Warehouse13.sol:Warehouse13",
				"label": "vesting",
				"offset": 0,
				"slot": "13",
				"type": "t_contract(Vesting)79064"
			},
			{
				"astId": 79145,
				"contract": "src/Warehouse13.sol:Warehouse13",
				"label": "lastPurchasedTime",
				"offset": 0,
				"slot": "14",
				"type": "t_mapping(t_address,t_uint256)"
			},
			{
				"astId": 79150,
				"contract": "src/Warehouse13.sol:Warehouse13",
				"label": "whitelistToken",
				"offset": 0,
				"slot": "15",
				"type": "t_mapping(t_address,t_bool)"
			}
		],
		"types": {
			"t_address": {
				"encoding": "inplace",
				"label": "address",
				"numberOfBytes": "20"
			},
			"t_array(t_uint256)dyn_storage": {
				"encoding": "dynamic_array",
				"label": "uint256[]",
				"numberOfBytes": "32",
				"base": "t_uint256"
			},
			"t_bool": {
				"encoding": "inplace",
				"label": "bool",
				"numberOfBytes": "1"
			},
			"t_contract(Vesting)79064": {
				"encoding": "inplace",
				"label": "contract Vesting",
				"numberOfBytes": "20"
			},
			"t_enum(OrderStatus)83115": {
				"encoding": "inplace",
				"label": "enum IWarehouse13.OrderStatus",
				"numberOfBytes": "1"
			},
			"t_mapping(t_address,t_bool)": {
				"encoding": "mapping",
				"key": "t_address",
				"label": "mapping(address => bool)",
				"numberOfBytes": "32",
				"value": "t_bool"
			},
			"t_mapping(t_address,t_uint256)": {
				"encoding": "mapping",
				"key": "t_address",
				"label": "mapping(address => uint256)",
				"numberOfBytes": "32",
				"value": "t_uint256"
			},
			"t_mapping(t_uint256,t_struct(AgentGeneratedIntent)83129_storage)": {
				"encoding": "mapping",
				"key": "t_uint256",
				"label": "mapping(uint256 => struct IWarehouse13.AgentGeneratedIntent)",
				"numberOfBytes": "32",
				"value": "t_struct(AgentGeneratedIntent)83129_storage"
			},
			"t_struct(AgentGeneratedIntent)83129_storage": {
				"encoding": "inplace",
				"label": "struct IWarehouse13.AgentGeneratedIntent",
				"numberOfBytes": "160",
				"members": [
					{
						"astId": 83117,
						"contract": "src/Warehouse13.sol:Warehouse13",
						"label": "orderType",
						"offset": 0,
						"slot": "0",
						"type": "t_uint8"
					},
					{
						"astId": 83119,
						"contract": "src/Warehouse13.sol:Warehouse13",
						"label": "orderId",
						"offset": 0,
						"slot": "1",
						"type": "t_uint256"
					},
					{
						"astId": 83121,
						"contract": "src/Warehouse13.sol:Warehouse13",
						"label": "assetToSell",
						"offset": 0,
						"slot": "2",
						"type": "t_address"
					},
					{
						"astId": 83123,
						"contract": "src/Warehouse13.sol:Warehouse13",
						"label": "amountToSell",
						"offset": 0,
						"slot": "3",
						"type": "t_uint256"
					},
					{
						"astId": 83125,
						"contract": "src/Warehouse13.sol:Warehouse13",
						"label": "assetToBuy",
						"offset": 0,
						"slot": "4",
						"type": "t_address"
					},
					{
						"astId": 83128,
						"contract": "src/Warehouse13.sol:Warehouse13",
						"label": "orderStatus",
						"offset": 20,
						"slot": "4",
						"type": "t_enum(OrderStatus)83115"
					}
				]
			},
			"t_uint256": {
				"encoding": "inplace",
				"label": "uint256",
				"numberOfBytes": "32"
			},
			"t_uint8": {
				"encoding": "inplace",
				"label": "uint8",
				"numberOfBytes": "1"
			}
		}
	},
	"id": 190
}